:041000004DEF08F0B8
:101008005182FACF01F0FBCF02F0E9CF03F0EACF2B
:1010180004F0E1CF05F0E2CF06F0D9CF07F0DACF40
:1010280008F0F3CF09F0F4CF0AF0F6CF0BF0F7CFC2
:101038000CF0F8CF0DF0F5CF0EF0F2A40CD0FD0EA9
:10104800D76E120ED66EF294010E00016B27000EB9
:101058006C236D236E230EC0F5FF0DC0F8FF0CC086
:10106800F7FF0BC0F6FF0AC0F4FF09C0F3FF08C082
:10107800DAFF07C0D9FF06C0E2FF05C0E1FF04C0E0
:10108800EAFF03C0E9FF02C0FBFF01C0FAFF51926B
:061098001100A9EF1CF09D
:1011000000090243000201008032090400000102CC
:101110000201000524001001042402020524060037
:1011200001052401000107058203080002090401EA
:1011300000020A00000007050302080000070581FD
:101140000240000036034D006900630072006F002A
:1011500063006800690070002000540065006300AF
:1011600068006E006F006C006F00670079002C0053
:10117000200049006E0063002E00120100020200F0
:101180000008D8040A000001010200010E03550006
:1011900053004200740069006E00040309043031FA
:1011A00032333435363738394142434445460024DA
:0711B0004750474C4C0000C2
:1011B8000001CD6F6BC0D2F06CC0D3F06DC0D4F01D
:1011C8006EC0D5F00001CD518FEC1DF0255028ECF4
:1011D8001EF0FF0E28EC1EF0286E296AD8902836DB
:1011E8002936D89028362936D8902836293628C066
:1011F800D0F029C0D1F0FF0E28EC1EF0286E050EA5
:10120800296ED8902832292EFCD728500001D013F7
:10121800FF0E28EC1EF0FF0E28EC1EF0FF0E28EC47
:101228001EF00F0B0001C96F000E0001D76F000EF2
:10123800D66F0001D7BF08D00001D75131E1080EA1
:101248000001D65DD8B02CD00001C951286E296A9A
:1012580028500001D65D0001D751800A2A6E295016
:10126800800A2A58D8A006D0000E0001C86F000EC8
:10127800C76F08D0FF0E28EC1EF0286E285000011A
:10128800C76FC86BBF0E0001D625D96E000E0001CE
:10129800D721DA6EC7C0DFFF0001D64BD72BC9D7DD
:1012A8000001CD51A6EC1DF0D2C01CF0D3C01DF03A
:1012B800D4C01EF0D5C01FF0E80E206E030E216EBC
:1012C800000E226E000E236EF9EC1BF01CC0CEF04F
:1012D8001DC0CFF0E80E136E030E146E000E156ECF
:1012E800000E166ED2C00FF0D3C010F0D4C011F0AB
:1012F800D5C012F04AEC1BF00FC01CF010C01DF056
:1013080011C01EF012C01FF03C0E206E000E216EA0
:10131800000E226E000E236EF9EC1BF01C5000012B
:10132800CA6F600E136EEA0E146E000E156E000E74
:10133800166ED2C00FF0D3C010F0D4C011F0D5C0D3
:1013480012F04AEC1BF00FC01CF010C01DF011C0C9
:101358001EF012C01FF03C0E206E000E216E000E13
:10136800226E000E236EF9EC1BF01C500001CB6FAF
:10137800800E136EEE0E146E360E156E000E166E7F
:10138800D2C00FF0D3C010F0D4C011F0D5C012F005
:101398004AEC1BF00FC01CF010C01DF011C01EF06D
:1013A80012C01FF0180E206E000E216E000E226E65
:1013B800000E236EF9EC1BF01C500001CC6FCCC062
:1013C8000FF0106A000E126E0A0E116EC7EC1AF0BA
:1013D8004EC028F04FC029F00F502826105029225F
:1013E80028C0F6FF29C0F7FF26C0D9FF27C0DAFFBB
:1013F8000800F5CFDFFFCCC00FF0106A000E126EA8
:101408000A0E116E8BEC1BF04EC028F04FC029F06D
:101418000F5028261050292228C0F6FF29C0F7FFB0
:1014280020EE01F02650D9262750DA220800F5CF01
:10143800DFFFCBC00FF0106A000E126E0A0E116E9D
:10144800C7EC1AF04EC028F04FC029F00F502826DC
:101458001050292228C0F6FF29C0F7FF20EE02F01D
:101468002650D9262750DA220800F5CFDFFFCBC057
:101478000FF0106A000E126E0A0E116E8BEC1BF044
:101488004EC028F04FC029F00F50282610502922AE
:1014980028C0F6FF29C0F7FF20EE03F02650D92612
:1014A8002750DA220800F5CFDFFFCAC00FF0106A14
:1014B800000E126E0A0E116EC7EC1AF04EC028F01C
:1014C8004FC029F00F5028261050292228C0F6FFB7
:1014D80029C0F7FF20EE04F02650D9262750DA223B
:1014E8000800F5CFDFFFCAC00FF0106A000E126EB9
:1014F8000A0E116E8BEC1BF04EC028F04FC029F07D
:101508000F5028261050292228C0F6FF29C0F7FFBF
:1015180020EE05F02650D9262750DA220800F5CF0C
:10152800DFFFCEC014F0CFC015F0000E176E640EAA
:10153800166E80EC1CF04EC028F04FC029F01450F5
:1015480028261550292228C0F6FF29C0F7FF20EECB
:1015580006F02650D9262750DA220800F5CFDFFFFB
:10156800000E126E640E116ECEC00FF0CFC010F0D8
:10157800D1EC1CF00FC014F010C015F0000E176E5F
:101588000A0E166E80EC1CF04EC028F04FC029F0F1
:10159800145028261550292228C0F6FF29C0F7FF25
:1015A80020EE07F02650D9262750DA220800F5CF7A
:1015B800DFFFCEC00FF0CFC010F0000E126E0A0E83
:1015C800116ED1EC1CF04EC028F04FC029F00F501E
:1015D80028261050292228C0F6FF29C0F7FF20EE40
:1015E80008F02650D9262750DA220800F5CFDFFF69
:1015F8000001CD51286E296A010E2826000E2922E5
:101608004EC02AF04FC02BF028502A2629502B22F2
:101618002AC0F6FF2BC0F7FF20EE09F02650D92686
:101628002750DA220800F5CFDFFFD0C028F0D1C05C
:1016380029F029C028F0296A0F0E2816000E29164D
:101648004EC02AF04FC02BF028502A2629502B22B2
:101658002AC0F6FF2BC0F7FF20EE0AF02650D92645
:101668002750DA220800F5CFDFFFD0C028F0D1C01C
:1016780029F0040E2A6ED890293228322A2EFBD758
:101688000F0E2816000E29164EC02BF04FC02CF056
:1016980028502B2629502C222BC0F6FF2CC0F7FFF0
:1016A80020EE0BF02650D9262750DA220800F5CF75
:1016B800DFFF0F0E0001D015286E000E0001D115B6
:1016C800296E4EC02AF04FC02BF028502A262950E8
:1016D8002B222AC0F6FF2BC0F7FF20EE0CF0265075
:1016E800D9262750DA220800F5CFDFFF0001C951BB
:1016F800010D4EC028F04FC029F0F3502826F450B1
:10170800292228C0F6FF29C0F7FF20EE0DF0265049
:10171800D9262750DA220800F5CFDFFF000E000196
:10172800D96F000ED86F0001D9BF08D00001D95178
:1017380060E1080E0001D85DD8B05BD0BF0E000193
:10174800D825D96E000E0001D921DA6EDF50286E37
:10175800283A0F0E28160F0E281628504E24296EE8
:10176800000E4F202A6E29C0F6FF2AC0F7FFD8C006
:101778002BF0D9C02CF0D8902B362C360E0E2B26F9
:10178800000E2C222B502624D96E2C502720DA6EDE
:101798000800F5CFDFFFBF0E0001D825D96E000E77
:1017A8000001D921DA6EDF50286E0F0E2816285056
:1017B8004E24296E000E4F202A6E29C0F6FF2AC03B
:1017C800F7FFD8C02BF0D9C02CF0D8902B362C3688
:1017D8000F0E2B26000E2C222B502624D96E2C50AF
:1017E8002720DA6E0800F5CFDFFF0001D84BD92B90
:1017F8009AD720EE1EF02650D9262750DA220D0E51
:10180800DF6E20EE1FF02650D9262750DA22000E70
:10181800DF6E20EE20F02650D9262750DA221F0E40
:10182800DF6E12002D0E106E000ED1EC1DF0186E3A
:101838002D0E106E010ED1EC1DF0196E2D0E106ECE
:10184800020ED1EC1DF01A6E2D0E106E030ED1ECA7
:101858001DF01B6E1C0E106E000ED1EC1DF01C6EE0
:101868001C0E106E010ED1EC1DF01D6E1C0E106EBC
:10187800020ED1EC1DF01E6E1C0E106E030ED1EC84
:101888001DF01F6E1D0E106E000ED1EC1DF0206EA7
:101898001D0E106E010ED1EC1DF0216E1D0E106E86
:1018A800020ED1EC1DF0226E1D0E106E030ED1EC4F
:1018B8001DF0236E13C0D9FF14C0DAFF450EDF6E8A
:1018C80018C015F0153A0F0E15160F0E15161550EF
:1018D8004E24166E000E4F20176E16C0F6FF17C066
:1018E800F7FF20EE01F01350D9261450DA22080031
:1018F800F5CFDFFF18C015F00F0E151615504E2442
:10190800166E000E4F20176E16C0F6FF17C0F7FFB1
:1019180020EE02F01350D9261450DA220800F5CF31
:10192800DFFF1CC015F0153A0F0E15160F0E151611
:1019380015504E24166E000E4F20176E16C0F6FF77
:1019480017C0F7FF20EE03F01350D9261450DA22FF
:101958000800F5CFDFFF1CC015F00F0E1516155047
:101968004E24166E000E4F20176E16C0F6FF17C0D5
:10197800F7FF20EE04F01350D9261450DA2208009D
:10198800F5CFDFFF20C015F0153A0F0E15160F0E14
:10199800151615504E24166E000E4F20176E16C0E1
:1019A800F6FF17C0F7FF20EE05F01350D9261450A4
:1019B800DA220800F5CFDFFF20C015F00F0E15164C
:1019C80015504E24166E000E4F20176E16C0F6FFE7
:1019D80017C0F7FF20EE06F01350D9261450DA226C
:1019E8000800F5CFDFFF20EE07F01350D92614507A
:1019F800DA222D0EDF6E19C015F0153A0F0E1516E6
:101A08000F0E151615504E24166E000E4F20176E29
:101A180016C0F6FF17C0F7FF20EE08F01350D926BE
:101A28001450DA220800F5CFDFFF19C015F00F0EA9
:101A3800151615504E24166E000E4F20176E16C040
:101A4800F6FF17C0F7FF20EE09F01350D9261450FF
:101A5800DA220800F5CFDFFF1DC015F0153A0F0E8A
:101A680015160F0E151615504E24166E000E4F2023
:101A7800176E16C0F6FF17C0F7FF20EE0AF01350D6
:101A8800D9261450DA220800F5CFDFFF1DC015F063
:101A98000F0E151615504E24166E000E4F20176E99
:101AA80016C0F6FF17C0F7FF20EE0BF01350D9262B
:101AB8001450DA220800F5CFDFFF21C015F0153ADF
:101AC8000F0E15160F0E151615504E24166E000E15
:101AD8004F20176E16C0F6FF17C0F7FF20EE0CF068
:101AE8001350D9261450DA220800F5CFDFFF21C0A1
:101AF80015F00F0E151615504E24166E000E4F20B9
:101B0800176E16C0F6FF17C0F7FF20EE0DF0135042
:101B1800D9261450DA220800F5CFDFFF20EE0EF0A8
:101B28001350D9261450DA222D0EDF6E1AC015F084
:101B3800153A0F0E15160F0E151615504E24166E63
:101B4800000E4F20176E16C0F6FF17C0F7FF20EEE5
:101B58000FF01350D9261450DA220800F5CFDFFF12
:101B68001AC015F00F0E151615504E24166E000EDD
:101B78004F20176E16C0F6FF17C0F7FF20EE10F0C3
:101B88001350D9261450DA220800F5CFDFFF1EC003
:101B980015F0153A0F0E15160F0E151615504E2482
:101BA800166E000E4F20176E16C0F6FF17C0F7FF0F
:101BB80020EE11F01350D9261450DA220800F5CF80
:101BC800DFFF1EC015F00F0E151615504E24166EA9
:101BD800000E4F20176E16C0F6FF17C0F7FF20EE55
:101BE80012F01350D9261450DA220800F5CFDFFF7F
:101BF80022C015F0153A0F0E15160F0E15161550B2
:101C08004E24166E000E4F20176E16C0F6FF17C032
:101C1800F7FF20EE13F01350D9261450DA220800EB
:101C2800F5CFDFFF22C015F00F0E151615504E2404
:101C3800166E000E4F20176E16C0F6FF17C0F7FF7E
:101C480020EE14F01350D9261450DA220800F5CFEC
:101C5800DFFF20EE15F01350D9261450DA222D0E8E
:101C6800DF6E1BC015F0153A0F0E15160F0E151660
:101C780015504E24166E000E4F20176E16C0F6FF34
:101C880017C0F7FF20EE16F01350D9261450DA22A9
:101C98000800F5CFDFFF1BC015F00F0E1516155005
:101CA8004E24166E000E4F20176E16C0F6FF17C092
:101CB800F7FF20EE17F01350D9261450DA22080047
:101CC800F5CFDFFF1FC015F0153A0F0E15160F0ED2
:101CD800151615504E24166E000E4F20176E16C09E
:101CE800F6FF17C0F7FF20EE18F01350D92614504E
:101CF800DA220800F5CFDFFF1FC015F00F0E15160A
:101D080015504E24166E000E4F20176E16C0F6FFA3
:101D180017C0F7FF20EE19F01350D9261450DA2215
:101D28000800F5CFDFFF23C015F0153A0F0E151682
:101D38000F0E151615504E24166E000E4F20176EF6
:101D480016C0F6FF17C0F7FF20EE1AF01350D92679
:101D58001450DA220800F5CFDFFF23C015F00F0E6C
:101D6800151615504E24166E000E4F20176E16C00D
:101D7800F6FF17C0F7FF20EE1BF01350D9261450BA
:101D8800DA220800F5CFDFFF20EE1CF01350D92629
:101D98001450DA220D0EDF6E20EE1FF01350D926F4
:101DA8001450DA22000EDF6E20EE20F01350D926F0
:101DB8001450DA221D0EDF6E12006BC032F06CC0B8
:101DC80033F06DC034F06EC035F08DC030F09AC07D
:101DD80031F07C0E0F6E000E106EAF0E116E110EEC
:101DE800126E000E146E060E136E09EC1BF00F50E7
:101DF8001010D8A410D04E0E3018D8B404D0530EFA
:101E08003018D8A408D0450E3118D8B406D0570ECB
:101E18003118D8B402D0000E120032C01CF033C002
:101E28001DF034C01EF035C01FF0E80E206E030E02
:101E3800216E000E226E000E236EF9EC1BF01CC002
:101E48002EF01DC02FF0E80E136E030E146E000E58
:101E5800156E000E166E32C00FF033C010F034C08D
:101E680011F035C012F04AEC1BF00FC01CF010C086
:101E78001DF011C01EF012C01FF03C0E206E000EA7
:101E8800216E000E226E000E236EF9EC1BF01C5022
:101E98002B6E600E136EEA0E146E000E156E000E99
:101EA800166E32C00FF033C010F034C011F035C0D8
:101EB80012F04AEC1BF00FC01CF010C01DF011C04E
:101EC8001EF012C01FF03C0E206E000E216E000E98
:101ED800226E000E236EF9EC1BF01C502C6E800E47
:101EE800136EEE0E146E360E156E000E166E32C0A0
:101EF8000FF033C010F034C011F035C012F04AECC6
:101F08001BF00FC01CF010C01DF011C01EF012C055
:101F18001FF0180E206E000E216E000E226E000EAD
:101F2800236EF9EC1BF01C502D6E2DC00FF0106ABB
:101F3800000E126E0A0E116EC7EC1AF04EC027F092
:101F48004FC028F00F5027261050282227C0F6FF30
:101F580028C0F7FF25C0D9FF26C0DAFF0800F5CF53
:101F6800DFFF2DC00FF0106A000E126E0A0E116E00
:101F78008BEC1BF04EC027F04FC028F00F502726DF
:101F88001050282227C0F6FF28C0F7FF20EE01F0E6
:101F98002550D9262650DA220800F5CFDFFF2CC0BD
:101FA8000FF0106A000E126E0A0E116EC7EC1AF0CE
:101FB8004EC027F04FC028F00F5027261050282277
:101FC80027C0F6FF28C0F7FF20EE02F02550D926DB
:101FD8002650DA220800F5CFDFFF2CC00FF0106A78
:101FE800000E126E0A0E116E8BEC1BF04EC027F01D
:101FF8004FC028F00F5027261050282227C0F6FF80
:1020080028C0F7FF20EE03F02550D9262650DA2203
:102018000800F5CFDFFF2BC00FF0106A000E126E1C
:102028000A0E116EC7EC1AF04EC027F04FC028F008
:102038000F5027261050282227C0F6FF28C0F7FF88
:1020480020EE04F02550D9262650DA220800F5CFD4
:10205800DFFF2BC00FF0106A000E126E0A0E116E11
:102068008BEC1BF04EC027F04FC028F00F502726EE
:102078001050282227C0F6FF28C0F7FF20EE05F0F1
:102088002550D9262650DA220800F5CFDFFF2EC0CA
:1020980014F02FC015F0000E176E640E166E80EC4B
:1020A8001CF04EC027F04FC028F0145027261550BA
:1020B800282227C0F6FF28C0F7FF20EE06F025509B
:1020C800D9262650DA220800F5CFDFFF000E126E5F
:1020D800640E116E2EC00FF02FC010F0D1EC1CF062
:1020E8000FC014F010C015F0000E176E0A0E166E11
:1020F80080EC1CF04EC027F04FC028F01450272663
:102108001550282227C0F6FF28C0F7FF20EE07F059
:102118002550D9262650DA220800F5CFDFFF2EC039
:102128000FF02FC010F0000E126E0A0E116ED1ECD7
:102138001CF04EC027F04FC028F00F502726105033
:10214800282227C0F6FF28C0F7FF20EE08F0255008
:10215800D9262650DA220800F5CFDFFF20EE09F055
:102168002550D9262650DA2230C0DFFF000E376E00
:10217800000E366E37BE06D0375021E1090E365CA8
:10218800D8B01DD0070E3624276E000E3720286ED3
:102198007C0E2724D96E000E2820DA6E0A0E36240B
:1021A800296E000E37202A6E29502524E16E2A5008
:1021B8002620E26EDFCFE7FF364A372ADBD720EE4C
:1021C80013F02550D9262650DA2231C0DFFF000E41
:1021D800396E000E386E39BE06D0395021E10A0E2C
:1021E800385CD8B01DD0130E3824276E000E392065
:1021F800286E7C0E2724D96E000E2820DA6E140E65
:102208003824296E000E39202A6E29502524E16EC3
:102218002A502620E26EDFCFE7FF384A392ADBD77B
:1022280020EE1EF02550D9262650DA220D0EDF6E3C
:1022380020EE1FF02550D9262650DA22000EDF6E38
:1022480020EE20F02550D9262650DA221F0EDF6E08
:10225800010E1200000E7E6E000E7F6E9484948034
:1022680094829288C78CC650F00B0109C66EC68A44
:10227800C9CF3CF0000E3C6E949C94989496949A26
:10228800949E9388939C8B8C8B888B868B8A000E6C
:10229800F6EC1DF0010EF6EC1DF0020EF6EC1DF04A
:1022A800030EF6EC1DF0000E52EC19F0010E52EC84
:1022B80019F0020E52EC19F0030E52EC19F0E1EC91
:1022C80018F0FD0ED76E120ED66E830ED56EF28EF6
:1022D800F28A938A900EAB6E040EAC6E080EB86E3E
:1022E800040EB06EE10EAF6E08EC16F050A81DD0CB
:1022F800060E48601AD04950210D000EF324136EC3
:10230800010EF420146E16EC0CF0482A010E492434
:102318000F6E106A000E1022000E126E060E116E5D
:102328008BEC1BF00F50496E509850AA22D0060E25
:1023380048601FD04950210D000EF3240F6E010E86
:10234800F420106E4750116E126A136A146AC6ECB4
:1023580014F0482A010E49240F6E106A000E10224C
:10236800000E126E060E116E8BEC1BF00F50496EAC
:10237800509A50AC25D0060E486022D04950210D05
:10238800000EF3240F6E010EF420106E67C011F0DA
:1023980068C012F069C013F06AC014F0C6EC14F0FB
:1023A800482A010E49240F6E106A000E1022000EF2
:1023B800126E060E116E8BEC1BF00F50496E509C7E
:1023C8004550D8B407D0B30E126E000E136E5BECF6
:1023D80018F0456E000E416E030E416401D07CD0AA
:1023E800415057EC1CF00009D8B474D02C0E106E74
:1023F8004150D1EC1DF03D6E3DAA13D00C0E106E6D
:10240800200E116E200E126E4150BDEC1DF02C0EE8
:10241800106E200E116E000E126E4150BDEC1DF0B4
:1024280009D00C0E106E200E116E000E126E415067
:10243800BDEC1DF03DA026D0060E486023D0900EBE
:10244800256E4950210D000EF324266E010EF4204E
:10245800276E4150DCEC08F0482A010E49240F6E23
:10246800106A000E1022000E126E060E116E8BEC12
:102478001BF00F50496E010E00016727000E6823FC
:1024880069236A233DA226D0060E486023D0940E05
:10249800256E4950210D000EF324266E010EF420FE
:1024A800276E4150DCEC08F0482A010E49240F6ED3
:1024B800106A000E1022000E126E060E116E8BECC2
:1024C8001BF00F50496E010E00016727000E6823AC
:1024D80069236A23412A80D79EAA6CD02CEC1CF071
:1024E8000009D8B467D0060E486064D04950210D61
:1024F800000EF324256E010EF420266EE1EC0EF09A
:102508000009D8B457D0482A010E49240F6E106A22
:10251800000E1022000E126E060E116E8BEC1BF0D0
:102528000F50496E47D04850475CD8A048C047F084
:10253800010E0001796F4A50210D000EF3243F6E01
:10254800010EF420406E20EE1FF03F50D926405077
:10255800DA22DFCF3AF0010EDF263A50010DF350B0
:102568003F24D96EF4504020DA6EDF50C3EC1BF0E4
:1025780020EE20F03F50D9264050DA2210EE1FF00E
:102588003F50E1264050E222DE50E618D8A412D08F
:10259800010E4A240F6E106A000E1022000E126EF1
:1025A800060E116E8BEC1BF00F504A6E4806000E9B
:1025B8000001796F2CEC1DF00009D8B430D04850D8
:1025C800D8B42DD0B0D721EC1AF03E6E0D0E3E18BF
:1025D800D8A413D04650010D9C0EF324D96E000EDA
:1025E800F420DA6E000EDF6E9C0E1C6E000E1D6E5F
:1025F80026EC13F0000E466E12D00A0E3E18D8B420
:102608000ED04650010D9C0EF324D96E000EF42016
:10261800DA6E3EC0DFFF160E466001D0462A46EC51
:102628001DF00009D8B404D000017951D8B4CBD733
:1026380080B65AD6000E646EC80E00D0E82EFDD7BC
:10264800FF0052D61CC0D9FF1DC0DAFF4F0EDE189E
:10265800D8B450A028D00F0E106EE00E116E000EE8
:10266800126E000EBDEC1DF00F0E106EE00E116E16
:10267800000E126E010EBDEC1DF00F0E106EE00E76
:10268800116E000E126E020EBDEC1DF00F0E106ED4
:10269800E00E116E000E126E030EBDEC1DF0020E60
:1026A80030D08A8A30D01CC0D9FF1DC0DAFF4C0E4A
:1026B800DE18D8B450A031D00F0E106EE00E116E97
:1026C800600E126E000EBDEC1DF00F0E106EE00EC7
:1026D800116E600E126E010EBDEC1DF00F0E106E25
:1026E800E00E116E600E126E020EBDEC1DF00F0EA4
:1026F800106EE00E116E600E126E030EBDEC1DF032
:10270800040E506ECED7000E00016B6F000E6C6F7A
:10271800000E6D6F000E6E6F31D11CC0D9FF1DC049
:10272800DAFF430EDE18D8A431D00F0E106EE00E7B
:10273800116E800E126E000EBDEC1DF00F0E106EA5
:10274800E00E116E800E126E010EBDEC1DF00F0E24
:10275800106EE00E116E800E126E020EBDEC1DF0B2
:102768000F0E106EE00E116E800E126E030EBDEC91
:102778001DF0010E506E000E486E000E496E000EE0
:102788004A6E000E0001796F8A9AF8D01CC0D9FFF2
:102798001DC0DAFF500EDE18D8A402D0508AEED041
:1027A8001CC0D9FF1DC0DAFF4D0EDE18D8A402D018
:1027B800508CE4D01CC0D9FF1DC0DAFF450EDE18CE
:1027C800D8A402D05088DAD01CC0D9FF1DC0DAFFC7
:1027D800520EDE18D8A408D0000E646EC80E00D0C1
:1027E800E82EFDD7FF00CAD01CC0D9FF1DC0DAFFF4
:1027F800530EDE18D8A4ABD020EE01F01C50D92619
:102808001D50DA22300EDE18D8A407D0AD0E176E90
:10281800060E186EFB0EE4EC1DF020EE01F01C50C5
:10282800D9261D50DA22310EDE18D8A407D0AD0EF5
:10283800176E060E186EDD0EE4EC1DF020EE01F0AA
:102848001C50D9261D50DA22320EDE18D8A407D023
:10285800AD0E176E060E186ECB0EE4EC1DF020EED2
:1028680001F01C50D9261D50DA22330EDE18D8A4E8
:1028780007D0AD0E176E060E186EC50EE4EC1DF0EF
:1028880020EE01F01C50D9261D50DA22340EDE1835
:10289800D8A407D0A40E176E040E186EC50EE4EC6B
:1028A8001DF020EE01F01C50D9261D50DA22350EFD
:1028B800DE18D8A407D0A40E176E040E186EC20E28
:1028C800E4EC1DF020EE01F01C50D9261D50DA2250
:1028D800360EDE18D8A407D09A0E176E030E186E9F
:1028E800C10EE4EC1DF020EE01F01C50D9261D505D
:1028F800DA22370EDE18D8A407D0A30E176E040EFE
:10290800186EC00EE4EC1DF020EE01F01C50D92624
:102918001D50DA22380EDE18D8A407D09A0E176E8A
:10292800030E186EC00EE4EC1DF020EE01F01C50F2
:10293800D9261D50DA22390EDE18D8A41FD0AD0EC4
:10294800176E060E186EC20EE4EC1DF017D01CC0F0
:10295800D9FF1DC0DAFF540EDE18D8A40FD0455099
:10296800D8A40CD01CC011F01DC012F0B30E136E09
:10297800000E146E30EC17F0010E456E0D0EC3EC10
:102988001BF012000FC0D9FF10C0DAFF430EDF6E34
:1029980011C015F012C016F013C017F014C018F0CB
:1029A8001D0E05D0D8901832173216321532E82E7F
:1029B800F9D70F0E1516000E16164EC019F04FC097
:1029C8001AF01550192616501A2219C0F6FF1AC007
:1029D800F7FF20EE01F00F50D9261050DA22080038
:1029E800F5CFDFFF11C015F012C016F013C017F0B5
:1029F80014C018F0190E05D0D890183217321632B4
:102A08001532E82EF9D70F0E1516000E16164EC001
:102A180019F04FC01AF01550192616501A2219C06D
:102A2800F6FF1AC0F7FF20EE02F00F50D92610501B
:102A3800DA220800F5CFDFFF11C015F012C016F03A
:102A480013C017F014C018F0150E05D0D89018321E
:102A5800173216321532E82EF9D70F0E1516000E5A
:102A680016164EC019F04FC01AF0155019261650F8
:102A78001A2219C0F6FF1AC0F7FF20EE03F00F5014
:102A8800D9261050DA220800F5CFDFFF0F0E1314F5
:102A9800156E000E1414166E4EC017F04FC018F0C5
:102AA800155017261650182217C0F6FF18C0F7FF42
:102AB80020EE04F00F50D9261050DA220800F5CF86
:102AC800DFFF11C015F012C016F013C017F014C0C4
:102AD80018F00D0E05D0D89018321732163215326C
:102AE800E82EF9D70F0E1516000E16164EC019F05F
:102AF8004FC01AF01550192616501A2219C0F6FFA1
:102B08001AC0F7FF20EE05F00F50D9261050DA2230
:102B18000800F5CFDFFF0F0E1214156E000E131408
:102B2800166E4EC017F04FC018F0155017261650E5
:102B3800182217C0F6FF18C0F7FF20EE06F00F5056
:102B4800D9261050DA220800F5CFDFFF11C015F0A2
:102B580012C016F013C017F014C018F0050E05D0F7
:102B6800D8901832173216321532E82EF9D70F0ED0
:102B78001516000E16164EC019F04FC01AF0155053
:102B8800192616501A2219C0F6FF1AC0F7FF20EEB0
:102B980007F00F50D9261050DA220800F5CFDFFFD2
:102BA8000F0E1114156E000E1214166E4EC017F08B
:102BB8004FC018F0155017261650182217C0F6FFE8
:102BC80018C0F7FF20EE08F00F50D9261050DA226F
:102BD8000800F5CFDFFF20EE09F00F50D92610507E
:102BE800DA220D0EDF6E20EE1FF00F50D92610509E
:102BF800DA22000EDF6E20EE20F00F50D92610509A
:102C0800DA220A0EDF6E120000017A2B7A05206E96
:102C1800C80E206402D082EC1AF062A6120063503B
:102C2800D8A40AD102010041E8423F0B0F0B0D0A5C
:102C3800D8A4D9D0000E0201046F000E0201046F5F
:102C480030C220F0600E2016D8B458D078D032C2E6
:102C58001CF002013751206E020136511D6E20C052
:102C68001EF002013351CAEC17F00009D8A4DDD0D8
:102C7800A3D032C24DF09ED00201046FD6D032C22A
:102C88007BF0000E0001736F010E726F93D07BC052
:102C980038F207D00201056FC80EEED7000E020108
:102CA800386F010EF7D7020130511F0B020AD8A462
:102CB8001ED074C038F275C039F2020EEBD702018B
:102CC80030511F0B020AD8A475D002013251D8A482
:102CD80071D0010E0001746F6DD0020130511F0BCD
:102CE800020AD8A467D0000E0001746F63D0000EEA
:102CF8000201386F000E0201396FDFD7020131512E
:102D0800000AD8B4D0D7010AD8B4E7D7020AD8B491
:102D1800D6D7060AD8B4ADD7030AD8B498D70E0ABE
:102D2800D8B4B5D7010AD8B4AAD7030AD8B4B6D745
:102D38001B0AD8B43FD0030AD8B4D9D73DD0020172
:102D48003051600B200AD8B43CD06FD0000E226EF0
:102D5800070E226401D00CD02250010D380EF32446
:102D6800D96E020EF420DA6E000EDF6E222AF0D73A
:102D7800080E90D7010E0001786F1CD0000E236E4C
:102D8800060E236401D014D02350010D600EF324E5
:102D9800D96E000EF420DA6E2350010D380EF3249C
:102DA800E16E020EF420E26EDFCFE7FF232AE8D7B8
:102DB800070E70D7000E6ED7000E0201056FCC0EFD
:102DC8005BD702013151000AD8B4F4D7010AD8B44C
:102DD800BDD7210AD8B4CED7010AD8B4CFD7030AB1
:102DE800D8B4E8D7E9D7000178510001D8B41DD08C
:102DF800000E246E060E246401D014D02450010D58
:102E0800300EF324D96E020EF420DA6E2450010D30
:102E1800600EF324E16E000EF420E26EDFCFE7FFD0
:102E2800242AE8D7000E0001786F080E0201016F0E
:102E3800800E0201006F0DD0040E6318D8A409D0CB
:102E48004D50D8B404D04DC05CFF000E4D6EBAECA6
:102E580019F064986296120020EE02F01350D926F9
:102E68001450DA2210EE01F01150E1261250E2223D
:102E7800E750F2EC1CF0DF6E20EE03F01150D9267B
:102E88001250DA22DF50F2EC1CF0156E166A153A71
:102E9800163AF00E161615500F0B1612F00E1516E0
:102EA80020EE02F01150D9261250DA22DF50F2EC4F
:102EB8001CF0176E1750196E186A15501812165014
:102EC800191220EE04F01150D9261250DA22DF50E0
:102ED800F2EC1CF01A6E1A501812000E191213C0D8
:102EE800D9FF14C0DAFF18C0DEFF19C0DDFF20EEDD
:102EF80003F01350D9261450DA2210EE05F01150C1
:102F0800E1261250E222E750F2EC1CF0DF6E000ED0
:102F18001B6E31D01B50010D040EF326000EF42257
:102F2800F3501324D96EF4501420DA6E1B50020D9E
:102F3800070EF326000EF422F3501124E16EF4502C
:102F48001220E26EE750F2EC1CF0156E1B50020DD9
:102F5800060EF326000EF422F3501124E16EF4500D
:102F68001220E26EE750F2EC1CF0166E1638F00BE9
:102F78001510DF6E1B2A20EE03F01350D9261450CB
:102F8800DA22DE501B5CD8B01200C4D71F6E83D083
:102F98007A0E156E110E166E15501610D8A4000E66
:102FA800176E000E196E120E186E1DC01AF01EC094
:102FB8001BF060EC1DF01200010E156E110E166E5E
:102FC80015501610D8A4000E176E000E196E430E79
:102FD800186E1DC01AF01EC01BF060EC1DF0120028
:102FE8009A0E156E110E166E15501610D8A4000EF6
:102FF800176E000E196E040E186E1DC01AF01EC052
:103008001BF060EC1DF01200440E156E110E166ECA
:1030180015501610D8A4000E176E000E196E360E35
:10302800186E1DC01AF01EC01BF060EC1DF01200D7
:103038008C0E156E110E166E15501610D8A4000EB3
:10304800176E000E196E0E0E186E1DC01AF01EC0F7
:103058001BF060EC1DF01200000E156E030E166ECC
:10306800000E176E000E196E120E186E1DC01AF0A3
:103078001EC01BF060EC1DF012001C50000AD8B4F2
:10308800AFD7010AD8B4C0D7030AD8B4D1D7010A38
:10309800D8B4E2D70AD01F50010AD8B479D7030AA6
:1030A800D8B48AD7010AD8B4E8D7000E120020EEA7
:1030B80002F01250D9261350DA22DF50146E14048D
:1030C8001A6E1A5018EC1EF0196E19B404D0400E7E
:1030D800166E810E0BD019B804D0420E166E820EF1
:1030E80005D019BC05D0440E166E840E176E02D09A
:1030F800010E12001A508FEC1DF0165028EC1EF02D
:1031080012C0D9FF13C0DAFFDECF14F0DDCF15F0FF
:10311800D89015321432D89015321432D89015320E
:103128001432145028EC1EF012C0D9FF13C0DAFF75
:10313800DF50146E050E156ED8901436152EFCD778
:10314800145028EC1EF0000E28EC1EF0000E28EC9F
:103158001EF020EE03F01250D9261350DA22DF5069
:1031680028EC1EF0000E186E10D01850010D040E39
:10317800F326000EF422F3501224D96EF4501320D3
:10318800DA6EDF5028EC1EF0182A20EE03F01250F9
:10319800D9261350DA22DE50185CD8A0E6D71A5088
:1031A800A6EC1DF01A508FEC1DF0175028EC1EF0FD
:1031B8001A50A6EC1DF0000E1200800E0201006FDE
:1031C800080E0201016F300E0201026F020E0201A9
:1031D800036F000E0201046F080E0201056F380E1E
:1031E8000201066F020E0201076F000E0201106F46
:1031F800400E0201116F600E0201126F020E0201F1
:10320800136F400E0201146F400E0201156FA00EDD
:103218000201166F020E0201176F000E0201206FE5
:10322800080E0201216F400E0201226F020E0201F8
:10323800236F400E0201246F080E0201256F480E0D
:103248000201266F020E0201276F800E0201286F0D
:10325800080E0201296F500E02012A6F020E0201A8
:103268002B6F800E02012C6F080E02012D6F580E75
:1032780002012E6F020E02012F6F160E0F01536FFF
:103288001A0E0F01546F1A0E0F01556F1C0E0F0105
:10329800566F170E616E080E646E1200176E0F0ED1
:1032A800106E850E116E175007EC1EF0600E106E32
:1032B800040E116E175007EC1EF0700E106E000E03
:1032C800116E175007EC1EF0200E106E000E116ED6
:1032D800175007EC1EF0210E106E000E116E1750DD
:1032E80007EC1EF0220E106E000E116E175007EC40
:1032F8001EF0230E106E000E116E175007EC1EF014
:10330800240E106E000E116E175007EC1EF0250EDD
:10331800106E000E116E175007EC1EF0260E106E80
:10332800000E116E175007EC1EF0270E106E000EDF
:10333800116E175007EC1EF02B0E106E230E116E37
:10334800175007EC1EF0C10E136E9A0E146E030E82
:10335800156E175078EC1DF00C0E106E0F0E116ED6
:103368000D0E126E1750BDEC1DF0120000017651C3
:1033780000017711D8B4120076C012F077C013F0AC
:10338800135004E1090E125CD8A004D0000E136E8D
:10339800080E126E000E146E3AD08A0E00016F19D4
:1033A80019E1110E0001701915E1000E00017119E3
:1033B800D8A410D012EC1DF00009D8B40BD01450CA
:1033C800010D380EF324D96E020EF420DA6E030EC6
:1033D800DF6E11D06FC0F6FF70C0F7FF71C0F8FF45
:1033E8001450010D380EF324D96E020EF420DA6E53
:1033F8000800F5CFDFFF0001010E6F27000E7023D4
:10340800000E712300017607D8A07707142A1450FC
:10341800106E116A1250105C13501158D8A0BDD705
:1034280012C005F2020104AD04D0880E0201046F37
:103438001200C80E0201046F12004350080D500E0E
:103448000F6E020E106EF3500F26F45010224C50DF
:10345800010DF3500F24D96EF4501020DA6EDF50AE
:10346800126E4C2A43500F6E106AD8900F361036E1
:10347800D8900F361036290E0F26000E1022000E97
:103488000F24D96E020E1020DA6E4C50DE18D8A424
:1034980033D043500F6E106AD8900F361036D8903C
:1034A8000F361036290E0F26000E1022000E0F249C
:1034B800D96E020E1020DA6E080EDF6E43500F6EC2
:1034C800106AD8900F361036D8900F361036280E5E
:1034D8000F26000E1022000E0F24D96E020E1020A7
:1034E800DA6E800EDF6E000E4C6E4350D8A402D008
:1034F800010E01D0000E436E1250120000017251ED
:1035080000017311D8B412004B50D8B412004250C5
:103518000F6E106AD8900F361036D8900F361036C6
:10352800100E0F26000E1022000E0F24D96E020E68
:103538001020DA6E0201DFBE120042500F6E106AD0
:10354800D8900F361036D8900F361036110E0F2639
:10355800000E1022000E0F24D96E020E1020DA6E13
:103568004BC0DFFF000E4B6E4250D8A406D0C80EE9
:103578000201106F010E426E1200880E0201146FD4
:10358800000E426E1200000E146E12AE06D0116CC0
:10359800121ED8B0122A010E146E10AE06D00F6C8F
:1035A800101ED8B0102A010E141A000E166E000E46
:1035B800156E11501210D8B41CD0010E136E04D021
:1035C800D89011361236132A12AEFAD7D89015367B
:1035D800163611500F5C12501058D8A005D0115053
:1035E8000F5E1250105A1580D89012321132132ED5
:1035F800EDD71450D8B404D0156C161ED8B0162ABE
:1036080015C00FF016C010F0120033D00FC0D9FF4C
:1036180010C0DAFFDF50D8B40FD00FC0D9FF10C0E8
:10362800DAFFDF50156E11C0F6FF12C0F7FF080071
:10363800F5501518D8B419D011C0F6FF12C0F7FF0D
:103648000800F550156E166A151E161E154A162A1C
:103658000FC0D9FF10C0DAFFDF50176E17501524BE
:103668000F6E000E1620106E12000F4A102A114A13
:10367800122A1306D8A014061328C8E11428D8A4BF
:10368800C5D7000E106E000E0F6E1200000E176EDA
:10369800000E186E000E196E000E1A6E13501410DC
:1036A80015101610D8B42AD0010E1B6E06D0D8906B
:1036B80013361436153616361B2A16AEF8D7D89098
:1036C8001736183619361A3613500F5C145010581E
:1036D8001550115816501258D8A009D013500F5E23
:1036E8001450105A1550115A1650125A1780D89063
:1036F80016321532143213321B2EE1D717C00FF0D1
:1037080018C010F019C011F01AC012F01200000E03
:10371800146E10AE06D00F6C101ED8B0102A010E11
:10372800146E12AE04D0116C121ED8B0122A1150A9
:103738001210D8B418D0010E136E04D0D8901136D8
:103748001236132A12AEFAD711500F5C12501058C5
:10375800D8A004D011500F5E1250105AD8901232CF
:103768001132132EF1D71450D8B404D00F6C101E98
:10377800D8B0102A0FC00FF010C010F01200136E4E
:103788004250116E126AD89011361236D8901136FE
:103798001236100E1126000E1222000E1124D96EB8
:1037A800020E1220DA6E0201DFBE12004250400DF6
:1037B800600E116E020E126EF3501126F450122292
:1037C8004B50010DF3501124D96EF4501220DA6ECB
:1037D80013C0DFFF000E00017A6F4B2A400E4B1812
:1037E800D8A4120082EC1AF01200205021102210E6
:1037F8002310D8B424D0010E246E06D0D8902036D9
:10380800213622362336242A23AEF8D720501C5CD2
:1038180021501D5822501E5823501F58D8A008D098
:1038280020501C5E21501D5A22501E5A23501F5AE8
:10383800D8902332223221322032242EE7D71CC0DE
:103848001CF01DC01DF01EC01EF01FC01FF012008E
:10385800AECF0FF0240E0F18D8A402D0000E446E7D
:103868004450010D7C0EF324D96E000EF420DA6E5C
:103878000FC0DFFF0A0E0F18D8B404D01F0E44186B
:10388800D8A40ED04450010D7C0EF324D96E000E3E
:10389800F420DA6E000EDF6E000E446E010E120088
:1038A800442A000E12000F6E0F50D8A406D082B41E
:1038B80002D0010E1200000E12000F04D8A406D088
:1038C80082B002D0010E1200000E1200020E0F1874
:1038D800D8A406D082B202D0010E1200000E120047
:1038E800030E0F18D8A406D080B802D0010E12001B
:1038F800000E1200000E1200000E1A6E000E196E55
:1039080016501710D8B41CD0010E186E04D0D890D9
:1039180016361736182A17AEFAD7D89019361A3627
:103928001650145C17501558D8A005D01650145EC0
:103938001750155A1980D89017321632182EEDD70D
:1039480019C014F01AC015F012005E0EF66E3C0E87
:10395800F76E000EF86E0900F5CF4EF00900F5CFAE
:103968004FF00900F5CF50F001EE00F0C60EEE6AF8
:10397800E806FDE100EE60F05F0EEE6AE806FDE1A4
:1039880000EE42F00C0EEE6AE806FDE1519051920D
:10399800000EF86E00012EEF11F011501210D8B47D
:1039A80018D0010E136E04D0D89011361236132A8F
:1039B80012AEFAD711500F5C12501058D8A004D08C
:1039C80011500F5E1250105AD89012321132132E25
:1039D800F1D70FC00FF010C010F01200106E000EDB
:1039E8000F6E2F0E106406D03A0E106003D01050E0
:1039F800D00F0F6E400E106406D0470E106003D033
:103A08001050C90F0F6E600E106406D0670E10605C
:103A180003D01050A90F0F6E0F501200000E0F6E3A
:103A2800000EF66E030EF76E0800F550120AD8A4C1
:103A38000DD0010EF66E030EF76E000EF86E08003C
:103A4800F550030AD8A402D0010E0F6E0F501200D1
:103A580042500F6E106AD8900F361036D8900F3635
:103A68001036100E0F26000E1022000E0F24D96EED
:103A7800020E1020DA6E0201DFBE02D0010E120023
:103A8800000E120043500F6E106AD8900F36103691
:103A9800D8900F361036280E0F26000E1022000E72
:103AA8000F24D96E020E1020DA6E0201DFBE02D09A
:103AB800010E1200000E12001A50185C1B50195803
:103AC800D8B004D018C01AF019C01BF01AC076F08C
:103AD8001BC077F015C06FF016C070F017C071F0FA
:103AE800BAEC19F01A501200166E2A0E106E13C096
:103AF80011F0165007EC1EF0290E106E14C011F0CC
:103B0800165007EC1EF0280E106E15C011F0165056
:103B180007EC1EF012000F6E0F50D8A402D08B9C39
:103B280012000F04D8A402D08B981200020E0F18AE
:103B3800D8A402D08B961200030E0F18D8A4120036
:103B48008B9A12000F6E0F50D8A402D08B8C1200E3
:103B58000F04D8A402D08B881200020E0F18D8A424
:103B680002D08B861200030E0F18D8A412008B8A7D
:103B78001200136E13508FEC1DF0050E28EC1EF08A
:103B8800105028EC1EF0115028EC1EF0125028ECB2
:103B98001EF01350A6EC1DF01200126E12508FEC9E
:103BA8001DF0030E28EC1EF0105028EC1EF0FF0E3E
:103BB80028EC1EF0116E1250A6EC1DF011501200E8
:103BC800196E000E1A6E030E1A6401D0120019C085
:103BD80013F017C014F018C015F01A5078EC1DF047
:103BE8001A2AF1D7106E000E116E113EFED7105032
:103BF8008FEC1DF0C00E28EC1EF01050A6EC1DF046
:103C0800113EFED71200126E12508FEC1DF0020EFC
:103C180028EC1EF0105028EC1EF0115028EC1EF075
:103C28001250A6EC1DF01200116E11508FEC1DF011
:103C3800A00E28EC1EF0FF0E28EC1EF0106E11509E
:103C4800A6EC1DF0105012000F6E0FC0C9FFC7A0E0
:093C5800FED7C95012009E1101B3
:020000040030CA
:02000000007787
:00000001FF
